{
  "_format": "hh-sol-artifact-1",
  "contractName": "InvoiceChain",
  "sourceName": "contracts/InvoisChain.sol",
  "abi": [
    {
      "inputs": [],
      "stateMutability": "nonpayable",
      "type": "constructor"
    },
    {
      "inputs": [],
      "name": "InsufficientBalanace",
      "type": "error"
    },
    {
      "inputs": [],
      "name": "InvalidInvoiceId",
      "type": "error"
    },
    {
      "inputs": [],
      "name": "InvoicePaidForAlready",
      "type": "error"
    },
    {
      "inputs": [],
      "name": "ReentrancyGuardReentrantCall",
      "type": "error"
    },
    {
      "inputs": [],
      "name": "ZeroAddressDetected",
      "type": "error"
    },
    {
      "anonymous": false,
      "inputs": [
        {
          "indexed": true,
          "internalType": "address",
          "name": "_add",
          "type": "address"
        },
        {
          "indexed": false,
          "internalType": "uint256",
          "name": "_amt",
          "type": "uint256"
        },
        {
          "indexed": false,
          "internalType": "uint256",
          "name": "_invoiceId",
          "type": "uint256"
        }
      ],
      "name": "InvoiceCreatedSuccessfully",
      "type": "event"
    },
    {
      "anonymous": false,
      "inputs": [
        {
          "indexed": true,
          "internalType": "address",
          "name": "_add",
          "type": "address"
        },
        {
          "indexed": false,
          "internalType": "uint256",
          "name": "_amt",
          "type": "uint256"
        },
        {
          "indexed": false,
          "internalType": "uint256",
          "name": "_invoiceId",
          "type": "uint256"
        }
      ],
      "name": "PaymentSuccessful",
      "type": "event"
    },
    {
      "inputs": [
        {
          "internalType": "address",
          "name": "_buyerAddress",
          "type": "address"
        },
        {
          "internalType": "string[]",
          "name": "_goods",
          "type": "string[]"
        },
        {
          "internalType": "uint256",
          "name": "_amt",
          "type": "uint256"
        },
        {
          "internalType": "address",
          "name": "_tokenAddress",
          "type": "address"
        }
      ],
      "name": "createInvoice",
      "outputs": [],
      "stateMutability": "nonpayable",
      "type": "function"
    },
    {
      "inputs": [
        {
          "internalType": "uint256",
          "name": "_invoiceId",
          "type": "uint256"
        }
      ],
      "name": "generateInvoice",
      "outputs": [
        {
          "components": [
            {
              "internalType": "address",
              "name": "buyer",
              "type": "address"
            },
            {
              "internalType": "address",
              "name": "seller",
              "type": "address"
            },
            {
              "internalType": "string[]",
              "name": "goods",
              "type": "string[]"
            },
            {
              "internalType": "string",
              "name": "date",
              "type": "string"
            },
            {
              "internalType": "uint256",
              "name": "amount",
              "type": "uint256"
            },
            {
              "internalType": "bool",
              "name": "isPaid",
              "type": "bool"
            },
            {
              "internalType": "address",
              "name": "tokenAddress",
              "type": "address"
            },
            {
              "internalType": "uint256",
              "name": "amountPaidInEther",
              "type": "uint256"
            }
          ],
          "internalType": "struct InvoiceChain.Invoice",
          "name": "",
          "type": "tuple"
        }
      ],
      "stateMutability": "view",
      "type": "function"
    },
    {
      "inputs": [],
      "name": "invoiceId",
      "outputs": [
        {
          "internalType": "uint256",
          "name": "",
          "type": "uint256"
        }
      ],
      "stateMutability": "view",
      "type": "function"
    },
    {
      "inputs": [
        {
          "internalType": "uint256",
          "name": "",
          "type": "uint256"
        }
      ],
      "name": "invoices",
      "outputs": [
        {
          "internalType": "address",
          "name": "buyer",
          "type": "address"
        },
        {
          "internalType": "address",
          "name": "seller",
          "type": "address"
        },
        {
          "internalType": "string",
          "name": "date",
          "type": "string"
        },
        {
          "internalType": "uint256",
          "name": "amount",
          "type": "uint256"
        },
        {
          "internalType": "bool",
          "name": "isPaid",
          "type": "bool"
        },
        {
          "internalType": "address",
          "name": "tokenAddress",
          "type": "address"
        },
        {
          "internalType": "uint256",
          "name": "amountPaidInEther",
          "type": "uint256"
        }
      ],
      "stateMutability": "view",
      "type": "function"
    },
    {
      "inputs": [
        {
          "internalType": "uint256",
          "name": "_invoiceId",
          "type": "uint256"
        }
      ],
      "name": "payInvoice",
      "outputs": [],
      "stateMutability": "nonpayable",
      "type": "function"
    },
    {
      "inputs": [
        {
          "internalType": "uint256",
          "name": "_invoiceId",
          "type": "uint256"
        }
      ],
      "name": "payWithEther",
      "outputs": [],
      "stateMutability": "payable",
      "type": "function"
    },
    {
      "inputs": [
        {
          "internalType": "uint256",
          "name": "_invoiceId",
          "type": "uint256"
        }
      ],
      "name": "sendEtherToSeller",
      "outputs": [],
      "stateMutability": "nonpayable",
      "type": "function"
    }
  ],
  "bytecode": "0x608060405234801561001057600080fd5b506001600081905550611eea806100286000396000f3fe6080604052600436106100705760003560e01c806370c862861161004e57806370c8628614610111578063741be2e01461013c578063ac60a6cd14610165578063e31e808a1461018e57610070565b806319e31e7d146100755780634e6d140514610091578063501dba0d146100d4575b600080fd5b61008f600480360381019061008a919061115d565b6101b7565b005b34801561009d57600080fd5b506100b860048036038101906100b3919061115d565b61032a565b6040516100cb9796959493929190611285565b60405180910390f35b3480156100e057600080fd5b506100fb60048036038101906100f6919061115d565b610461565b60405161010891906114eb565b60405180910390f35b34801561011d57600080fd5b5061012661072b565b604051610133919061150d565b60405180910390f35b34801561014857600080fd5b50610163600480360381019061015e919061176f565b610731565b005b34801561017157600080fd5b5061018c6004803603810190610187919061115d565b6108ca565b005b34801561019a57600080fd5b506101b560048036038101906101b0919061115d565b610a9c565b005b6101bf610ce0565b6101c833610d26565b6101d181610d8f565b60006001600083815260200190815260200160002090508060040154341461022e576040517f08c379a00000000000000000000000000000000000000000000000000000000081526004016102259061183e565b60405180910390fd5b8060050160009054906101000a900460ff1615610280576040517f08c379a0000000000000000000000000000000000000000000000000000000008152600401610277906118aa565b60405180910390fd5b34816006018190555060018160050160006101000a81548160ff0219169083151502179055508060010160009054906101000a900473ffffffffffffffffffffffffffffffffffffffff1673ffffffffffffffffffffffffffffffffffffffff167fa056c95b265afa858f1320d1f0aad1aa914254d7fc80f83a8a0132bf2f29edbe8260040154846040516103169291906118ca565b60405180910390a250610327610e27565b50565b60016020528060005260406000206000915090508060000160009054906101000a900473ffffffffffffffffffffffffffffffffffffffff16908060010160009054906101000a900473ffffffffffffffffffffffffffffffffffffffff169080600301805461039990611922565b80601f01602080910402602001604051908101604052809291908181526020018280546103c590611922565b80156104125780601f106103e757610100808354040283529160200191610412565b820191906000526020600020905b8154815290600101906020018083116103f557829003601f168201915b5050505050908060040154908060050160009054906101000a900460ff16908060050160019054906101000a900473ffffffffffffffffffffffffffffffffffffffff16908060060154905087565b610469610fb0565b60016000838152602001908152602001600020604051806101000160405290816000820160009054906101000a900473ffffffffffffffffffffffffffffffffffffffff1673ffffffffffffffffffffffffffffffffffffffff1673ffffffffffffffffffffffffffffffffffffffff1681526020016001820160009054906101000a900473ffffffffffffffffffffffffffffffffffffffff1673ffffffffffffffffffffffffffffffffffffffff1673ffffffffffffffffffffffffffffffffffffffff16815260200160028201805480602002602001604051908101604052809291908181526020016000905b8282101561060557838290600052602060002001805461057890611922565b80601f01602080910402602001604051908101604052809291908181526020018280546105a490611922565b80156105f15780601f106105c6576101008083540402835291602001916105f1565b820191906000526020600020905b8154815290600101906020018083116105d457829003601f168201915b505050505081526020019060010190610559565b50505050815260200160038201805461061d90611922565b80601f016020809104026020016040519081016040528092919081815260200182805461064990611922565b80156106965780601f1061066b57610100808354040283529160200191610696565b820191906000526020600020905b81548152906001019060200180831161067957829003601f168201915b50505050508152602001600482015481526020016005820160009054906101000a900460ff161515151581526020016005820160019054906101000a900473ffffffffffffffffffffffffffffffffffffffff1673ffffffffffffffffffffffffffffffffffffffff1673ffffffffffffffffffffffffffffffffffffffff1681526020016006820154815250509050919050565b60025481565b61073a33610d26565b61074381610d26565b600060016002546107549190611982565b90506000600160008381526020019081526020016000209050858160000160006101000a81548173ffffffffffffffffffffffffffffffffffffffff021916908373ffffffffffffffffffffffffffffffffffffffff160217905550848160020190805190602001906107c8929190611039565b50838160040181905550338160010160006101000a81548173ffffffffffffffffffffffffffffffffffffffff021916908373ffffffffffffffffffffffffffffffffffffffff160217905550828160050160016101000a81548173ffffffffffffffffffffffffffffffffffffffff021916908373ffffffffffffffffffffffffffffffffffffffff16021790555060016002600082825461086b9190611982565b925050819055508573ffffffffffffffffffffffffffffffffffffffff167f232e818cf37cdab96d8db5abf0030846a8bc8818eb34b2bca16a0dd958e6229e85846040516108ba9291906118ca565b60405180910390a2505050505050565b6108d2610ce0565b6108db33610d26565b6108e481610d8f565b600060016000838152602001908152602001600020905061092e8160050160019054906101000a900473ffffffffffffffffffffffffffffffffffffffff16338360040154610e31565b8060050160019054906101000a900473ffffffffffffffffffffffffffffffffffffffff1673ffffffffffffffffffffffffffffffffffffffff166323b872dd338360010160009054906101000a900473ffffffffffffffffffffffffffffffffffffffff1684600401546040518463ffffffff1660e01b81526004016109b7939291906119b6565b6020604051808303816000875af11580156109d6573d6000803e3d6000fd5b505050506040513d601f19601f820116820180604052508101906109fa9190611a19565b5060018160050160006101000a81548160ff0219169083151502179055508060010160009054906101000a900473ffffffffffffffffffffffffffffffffffffffff1673ffffffffffffffffffffffffffffffffffffffff167fa056c95b265afa858f1320d1f0aad1aa914254d7fc80f83a8a0132bf2f29edbe826004015484604051610a889291906118ca565b60405180910390a250610a99610e27565b50565b610aa4610ce0565b60006001600083815260200190815260200160002090508060010160009054906101000a900473ffffffffffffffffffffffffffffffffffffffff1673ffffffffffffffffffffffffffffffffffffffff163373ffffffffffffffffffffffffffffffffffffffff1614610b4d576040517f08c379a0000000000000000000000000000000000000000000000000000000008152600401610b4490611ab8565b60405180910390fd5b8060050160009054906101000a900460ff16610b9e576040517f08c379a0000000000000000000000000000000000000000000000000000000008152600401610b9590611b24565b60405180910390fd5b60008160060154905080471015610bea576040517f08c379a0000000000000000000000000000000000000000000000000000000008152600401610be190611b90565b60405180910390fd5b600082600601819055508160010160009054906101000a900473ffffffffffffffffffffffffffffffffffffffff1673ffffffffffffffffffffffffffffffffffffffff166108fc829081150290604051600060405180830381858888f19350505050158015610c5e573d6000803e3d6000fd5b508160010160009054906101000a900473ffffffffffffffffffffffffffffffffffffffff1673ffffffffffffffffffffffffffffffffffffffff167fa056c95b265afa858f1320d1f0aad1aa914254d7fc80f83a8a0132bf2f29edbe8285604051610ccb9291906118ca565b60405180910390a25050610cdd610e27565b50565b600260005403610d1c576040517f3ee5aeb500000000000000000000000000000000000000000000000000000000815260040160405180910390fd5b6002600081905550565b600073ffffffffffffffffffffffffffffffffffffffff168173ffffffffffffffffffffffffffffffffffffffff1603610d8c576040517f510fbaea00000000000000000000000000000000000000000000000000000000815260040160405180910390fd5b50565b60008103610dc9576040517f15a6bc4300000000000000000000000000000000000000000000000000000000815260040160405180910390fd5b6001600082815260200190815260200160002060050160009054906101000a900460ff1615610e24576040517f688e5caa00000000000000000000000000000000000000000000000000000000815260040160405180910390fd5b50565b6001600081905550565b600083905060008173ffffffffffffffffffffffffffffffffffffffff166370a08231856040518263ffffffff1660e01b8152600401610e719190611bb0565b602060405180830381865afa158015610e8e573d6000803e3d6000fd5b505050506040513d601f19601f82011682018060405250810190610eb29190611be0565b905060008273ffffffffffffffffffffffffffffffffffffffff1663dd62ed3e86306040518363ffffffff1660e01b8152600401610ef1929190611c0d565b602060405180830381865afa158015610f0e573d6000803e3d6000fd5b505050506040513d601f19601f82011682018060405250810190610f329190611be0565b905083821015610f6e576040517f08f052dc00000000000000000000000000000000000000000000000000000000815260040160405180910390fd5b83811015610fa8576040517f08f052dc00000000000000000000000000000000000000000000000000000000815260040160405180910390fd5b505050505050565b604051806101000160405280600073ffffffffffffffffffffffffffffffffffffffff168152602001600073ffffffffffffffffffffffffffffffffffffffff168152602001606081526020016060815260200160008152602001600015158152602001600073ffffffffffffffffffffffffffffffffffffffff168152602001600081525090565b828054828255906000526020600020908101928215611081579160200282015b828111156110805782518290816110709190611de2565b5091602001919060010190611059565b5b50905061108e9190611092565b5090565b5b808211156110b257600081816110a991906110b6565b50600101611093565b5090565b5080546110c290611922565b6000825580601f106110d457506110f3565b601f0160209004906000526020600020908101906110f291906110f6565b5b50565b5b8082111561110f5760008160009055506001016110f7565b5090565b6000604051905090565b600080fd5b600080fd5b6000819050919050565b61113a81611127565b811461114557600080fd5b50565b60008135905061115781611131565b92915050565b6000602082840312156111735761117261111d565b5b600061118184828501611148565b91505092915050565b600073ffffffffffffffffffffffffffffffffffffffff82169050919050565b60006111b58261118a565b9050919050565b6111c5816111aa565b82525050565b600081519050919050565b600082825260208201905092915050565b60005b838110156112055780820151818401526020810190506111ea565b60008484015250505050565b6000601f19601f8301169050919050565b600061122d826111cb565b61123781856111d6565b93506112478185602086016111e7565b61125081611211565b840191505092915050565b61126481611127565b82525050565b60008115159050919050565b61127f8161126a565b82525050565b600060e08201905061129a600083018a6111bc565b6112a760208301896111bc565b81810360408301526112b98188611222565b90506112c8606083018761125b565b6112d56080830186611276565b6112e260a08301856111bc565b6112ef60c083018461125b565b98975050505050505050565b611304816111aa565b82525050565b600081519050919050565b600082825260208201905092915050565b6000819050602082019050919050565b600082825260208201905092915050565b6000611352826111cb565b61135c8185611336565b935061136c8185602086016111e7565b61137581611211565b840191505092915050565b600061138c8383611347565b905092915050565b6000602082019050919050565b60006113ac8261130a565b6113b68185611315565b9350836020820285016113c885611326565b8060005b8581101561140457848403895281516113e58582611380565b94506113f083611394565b925060208a019950506001810190506113cc565b50829750879550505050505092915050565b61141f81611127565b82525050565b61142e8161126a565b82525050565b60006101008301600083015161144d60008601826112fb565b50602083015161146060208601826112fb565b506040830151848203604086015261147882826113a1565b915050606083015184820360608601526114928282611347565b91505060808301516114a76080860182611416565b5060a08301516114ba60a0860182611425565b5060c08301516114cd60c08601826112fb565b5060e08301516114e060e0860182611416565b508091505092915050565b600060208201905081810360008301526115058184611434565b905092915050565b6000602082019050611522600083018461125b565b92915050565b611531816111aa565b811461153c57600080fd5b50565b60008135905061154e81611528565b92915050565b600080fd5b7f4e487b7100000000000000000000000000000000000000000000000000000000600052604160045260246000fd5b61159182611211565b810181811067ffffffffffffffff821117156115b0576115af611559565b5b80604052505050565b60006115c3611113565b90506115cf8282611588565b919050565b600067ffffffffffffffff8211156115ef576115ee611559565b5b602082029050602081019050919050565b600080fd5b600080fd5b600067ffffffffffffffff82111561162557611624611559565b5b61162e82611211565b9050602081019050919050565b82818337600083830152505050565b600061165d6116588461160a565b6115b9565b90508281526020810184848401111561167957611678611605565b5b61168484828561163b565b509392505050565b600082601f8301126116a1576116a0611554565b5b81356116b184826020860161164a565b91505092915050565b60006116cd6116c8846115d4565b6115b9565b905080838252602082019050602084028301858111156116f0576116ef611600565b5b835b8181101561173757803567ffffffffffffffff81111561171557611714611554565b5b808601611722898261168c565b855260208501945050506020810190506116f2565b5050509392505050565b600082601f83011261175657611755611554565b5b81356117668482602086016116ba565b91505092915050565b600080600080608085870312156117895761178861111d565b5b60006117978782880161153f565b945050602085013567ffffffffffffffff8111156117b8576117b7611122565b5b6117c487828801611741565b93505060406117d587828801611148565b92505060606117e68782880161153f565b91505092959194509250565b7f496e636f727265637420457468657220616d6f756e742073656e740000000000600082015250565b6000611828601b836111d6565b9150611833826117f2565b602082019050919050565b600060208201905081810360008301526118578161181b565b9050919050565b7f496e766f69636520616c72656164792070616964000000000000000000000000600082015250565b60006118946014836111d6565b915061189f8261185e565b602082019050919050565b600060208201905081810360008301526118c381611887565b9050919050565b60006040820190506118df600083018561125b565b6118ec602083018461125b565b9392505050565b7f4e487b7100000000000000000000000000000000000000000000000000000000600052602260045260246000fd5b6000600282049050600182168061193a57607f821691505b60208210810361194d5761194c6118f3565b5b50919050565b7f4e487b7100000000000000000000000000000000000000000000000000000000600052601160045260246000fd5b600061198d82611127565b915061199883611127565b92508282019050808211156119b0576119af611953565b5b92915050565b60006060820190506119cb60008301866111bc565b6119d860208301856111bc565b6119e5604083018461125b565b949350505050565b6119f68161126a565b8114611a0157600080fd5b50565b600081519050611a13816119ed565b92915050565b600060208284031215611a2f57611a2e61111d565b5b6000611a3d84828501611a04565b91505092915050565b7f4f6e6c79207468652073656c6c65722063616e2077697468647261772066756e60008201527f6473000000000000000000000000000000000000000000000000000000000000602082015250565b6000611aa26022836111d6565b9150611aad82611a46565b604082019050919050565b60006020820190508181036000830152611ad181611a95565b9050919050565b7f496e766f696365206e6f74207061696400000000000000000000000000000000600082015250565b6000611b0e6010836111d6565b9150611b1982611ad8565b602082019050919050565b60006020820190508181036000830152611b3d81611b01565b9050919050565b7f496e73756666696369656e7420636f6e74726163742062616c616e6365000000600082015250565b6000611b7a601d836111d6565b9150611b8582611b44565b602082019050919050565b60006020820190508181036000830152611ba981611b6d565b9050919050565b6000602082019050611bc560008301846111bc565b92915050565b600081519050611bda81611131565b92915050565b600060208284031215611bf657611bf561111d565b5b6000611c0484828501611bcb565b91505092915050565b6000604082019050611c2260008301856111bc565b611c2f60208301846111bc565b9392505050565b60008190508160005260206000209050919050565b60006020601f8301049050919050565b600082821b905092915050565b600060088302611c987fffffffffffffffffffffffffffffffffffffffffffffffffffffffffffffffff82611c5b565b611ca28683611c5b565b95508019841693508086168417925050509392505050565b6000819050919050565b6000611cdf611cda611cd584611127565b611cba565b611127565b9050919050565b6000819050919050565b611cf983611cc4565b611d0d611d0582611ce6565b848454611c68565b825550505050565b600090565b611d22611d15565b611d2d818484611cf0565b505050565b5b81811015611d5157611d46600082611d1a565b600181019050611d33565b5050565b601f821115611d9657611d6781611c36565b611d7084611c4b565b81016020851015611d7f578190505b611d93611d8b85611c4b565b830182611d32565b50505b505050565b600082821c905092915050565b6000611db960001984600802611d9b565b1980831691505092915050565b6000611dd28383611da8565b9150826002028217905092915050565b611deb826111cb565b67ffffffffffffffff811115611e0457611e03611559565b5b611e0e8254611922565b611e19828285611d55565b600060209050601f831160018114611e4c5760008415611e3a578287015190505b611e448582611dc6565b865550611eac565b601f198416611e5a86611c36565b60005b82811015611e8257848901518255600182019150602085019450602081019050611e5d565b86831015611e9f5784890151611e9b601f891682611da8565b8355505b6001600288020188555050505b50505050505056fea264697066735822122064528211a1515da6dc6e89d0e0b723a2bc5b3e74ca203611230b8acd2ec993fc64736f6c63430008180033",
  "linkReferences": {},
  "deployedLinkReferences": {}
}